{
  "contractName": "Auction",
  "abi": [
    {
      "inputs": [],
      "stateMutability": "nonpayable",
      "type": "constructor"
    },
    {
      "anonymous": false,
      "inputs": [
        {
          "indexed": false,
          "internalType": "address",
          "name": "CurrentBidder",
          "type": "address"
        },
        {
          "indexed": false,
          "internalType": "uint256",
          "name": "Current_BidAmount",
          "type": "uint256"
        },
        {
          "indexed": false,
          "internalType": "uint256",
          "name": "Previous_BidAmount",
          "type": "uint256"
        }
      ],
      "name": "BidPlace",
      "type": "event"
    },
    {
      "anonymous": false,
      "inputs": [
        {
          "indexed": false,
          "internalType": "address",
          "name": "SentFrom",
          "type": "address"
        },
        {
          "indexed": false,
          "internalType": "uint256",
          "name": "EthAmount",
          "type": "uint256"
        }
      ],
      "name": "RecievedEth",
      "type": "event"
    },
    {
      "stateMutability": "payable",
      "type": "receive",
      "payable": true
    },
    {
      "inputs": [
        {
          "internalType": "uint256",
          "name": "amount",
          "type": "uint256"
        }
      ],
      "name": "Bid",
      "outputs": [],
      "stateMutability": "payable",
      "type": "function",
      "payable": true
    },
    {
      "inputs": [],
      "name": "GetRefund",
      "outputs": [],
      "stateMutability": "payable",
      "type": "function",
      "payable": true
    },
    {
      "inputs": [],
      "name": "TransferEthToOwner",
      "outputs": [],
      "stateMutability": "payable",
      "type": "function",
      "payable": true
    },
    {
      "inputs": [],
      "name": "ShowCurrentBid",
      "outputs": [
        {
          "internalType": "address",
          "name": "",
          "type": "address"
        },
        {
          "internalType": "uint256",
          "name": "",
          "type": "uint256"
        }
      ],
      "stateMutability": "view",
      "type": "function",
      "constant": true
    },
    {
      "inputs": [],
      "name": "GetOwner",
      "outputs": [
        {
          "internalType": "address",
          "name": "",
          "type": "address"
        }
      ],
      "stateMutability": "view",
      "type": "function",
      "constant": true
    },
    {
      "inputs": [],
      "name": "getCurrentHighestBid",
      "outputs": [
        {
          "internalType": "address",
          "name": "",
          "type": "address"
        },
        {
          "internalType": "uint256",
          "name": "",
          "type": "uint256"
        }
      ],
      "stateMutability": "view",
      "type": "function",
      "constant": true
    },
    {
      "inputs": [],
      "name": "getPrevHighestBid",
      "outputs": [
        {
          "internalType": "address",
          "name": "",
          "type": "address"
        },
        {
          "internalType": "uint256",
          "name": "",
          "type": "uint256"
        }
      ],
      "stateMutability": "view",
      "type": "function",
      "constant": true
    },
    {
      "inputs": [],
      "name": "getContractBalance",
      "outputs": [
        {
          "internalType": "uint256",
          "name": "",
          "type": "uint256"
        }
      ],
      "stateMutability": "view",
      "type": "function",
      "constant": true
    }
  ],
  "bytecode": "0x608060405234801561001057600080fd5b50336000806101000a81548173ffffffffffffffffffffffffffffffffffffffff021916908373ffffffffffffffffffffffffffffffffffffffff1602179055506000600381905550600060058190555042600781905550610c86806100776000396000f3fe60806040526004361061007f5760003560e01c80636f9fb98a1161004e5780636f9fb98a146101515780637a183e841461017c57806382d909d614610198578063e9b4bd83146101c4576100bf565b80630ae50a39146100c457806320d6c040146100ef57806345f570f51461011b5780634fef690e14610125576100bf565b366100bf577f2ee94319febfab319e2fb7f26758029c16d689ff70557c0c14842862574e9e1733346040516100b592919061083e565b60405180910390a1005b600080fd5b3480156100d057600080fd5b506100d96101ce565b6040516100e69190610867565b60405180910390f35b3480156100fb57600080fd5b506101046101f7565b60405161011292919061083e565b60405180910390f35b610123610228565b005b34801561013157600080fd5b5061013a61036c565b60405161014892919061083e565b60405180910390f35b34801561015d57600080fd5b5061016661039d565b6040516101739190610882565b60405180910390f35b610196600480360381019061019191906108ce565b6103a5565b005b3480156101a457600080fd5b506101ad6105c5565b6040516101bb92919061083e565b60405180910390f35b6101cc6105f6565b005b60008060009054906101000a900473ffffffffffffffffffffffffffffffffffffffff16905090565b600080600460009054906101000a900473ffffffffffffffffffffffffffffffffffffffff16600354915091509091565b60008054906101000a900473ffffffffffffffffffffffffffffffffffffffff1673ffffffffffffffffffffffffffffffffffffffff163373ffffffffffffffffffffffffffffffffffffffff16146102b6576040517f08c379a00000000000000000000000000000000000000000000000000000000081526004016102ad90610958565b60405180910390fd5b6000479050806003541115610300576040517f08c379a00000000000000000000000000000000000000000000000000000000081526004016102f7906109c4565b60405180910390fd5b60008054906101000a900473ffffffffffffffffffffffffffffffffffffffff1673ffffffffffffffffffffffffffffffffffffffff166108fc6003549081150290604051600060405180830381858888f19350505050158015610368573d6000803e3d6000fd5b5050565b600080600660009054906101000a900473ffffffffffffffffffffffffffffffffffffffff16600554915091509091565b600047905090565b60035481111561058757600354600581905550600460009054906101000a900473ffffffffffffffffffffffffffffffffffffffff16600660006101000a81548173ffffffffffffffffffffffffffffffffffffffff021916908373ffffffffffffffffffffffffffffffffffffffff1602179055508060038190555033600460006101000a81548173ffffffffffffffffffffffffffffffffffffffff021916908373ffffffffffffffffffffffffffffffffffffffff16021790555080600160003373ffffffffffffffffffffffffffffffffffffffff1673ffffffffffffffffffffffffffffffffffffffff1681526020019081526020016000208190555060055460026000600660009054906101000a900473ffffffffffffffffffffffffffffffffffffffff1673ffffffffffffffffffffffffffffffffffffffff1673ffffffffffffffffffffffffffffffffffffffff168152602001908152602001600020600082825461051a9190610a13565b925050819055507f147d0f5a34a59737b812d157644b442fdb1c8fe124312a69d82947967a73241d600460009054906101000a900473ffffffffffffffffffffffffffffffffffffffff1660035460055460405161057a93929190610a69565b60405180910390a16105c2565b6040517f08c379a00000000000000000000000000000000000000000000000000000000081526004016105b990610aec565b60405180910390fd5b50565b600080600460009054906101000a900473ffffffffffffffffffffffffffffffffffffffff16600354915091509091565b6000600260003373ffffffffffffffffffffffffffffffffffffffff1673ffffffffffffffffffffffffffffffffffffffff168152602001908152602001600020549050600047905060008054906101000a900473ffffffffffffffffffffffffffffffffffffffff1673ffffffffffffffffffffffffffffffffffffffff163373ffffffffffffffffffffffffffffffffffffffff1614156106ce576040517f08c379a00000000000000000000000000000000000000000000000000000000081526004016106c590610b58565b60405180910390fd5b60008211610711576040517f08c379a000000000000000000000000000000000000000000000000000000000815260040161070890610bc4565b60405180910390fd5b80821115610754576040517f08c379a000000000000000000000000000000000000000000000000000000000815260040161074b90610c30565b60405180910390fd5b6000600260003373ffffffffffffffffffffffffffffffffffffffff1673ffffffffffffffffffffffffffffffffffffffff168152602001908152602001600020819055503373ffffffffffffffffffffffffffffffffffffffff166108fc839081150290604051600060405180830381858888f193505050501580156107df573d6000803e3d6000fd5b505050565b600073ffffffffffffffffffffffffffffffffffffffff82169050919050565b600061080f826107e4565b9050919050565b61081f81610804565b82525050565b6000819050919050565b61083881610825565b82525050565b60006040820190506108536000830185610816565b610860602083018461082f565b9392505050565b600060208201905061087c6000830184610816565b92915050565b6000602082019050610897600083018461082f565b92915050565b600080fd5b6108ab81610825565b81146108b657600080fd5b50565b6000813590506108c8816108a2565b92915050565b6000602082840312156108e4576108e361089d565b5b60006108f2848285016108b9565b91505092915050565b600082825260208201905092915050565b7f596f7520617265206e6f7420746865204f776e65720000000000000000000000600082015250565b60006109426015836108fb565b915061094d8261090c565b602082019050919050565b6000602082019050818103600083015261097181610935565b9050919050565b7f496e73756666696369656e7420416d6f756e7420696e20436f6e747261637400600082015250565b60006109ae601f836108fb565b91506109b982610978565b602082019050919050565b600060208201905081810360008301526109dd816109a1565b9050919050565b7f4e487b7100000000000000000000000000000000000000000000000000000000600052601160045260246000fd5b6000610a1e82610825565b9150610a2983610825565b9250827fffffffffffffffffffffffffffffffffffffffffffffffffffffffffffffffff03821115610a5e57610a5d6109e4565b5b828201905092915050565b6000606082019050610a7e6000830186610816565b610a8b602083018561082f565b610a98604083018461082f565b949350505050565b7f416d6f756e7420746f6f204c6f77000000000000000000000000000000000000600082015250565b6000610ad6600e836108fb565b9150610ae182610aa0565b602082019050919050565b60006020820190508181036000830152610b0581610ac9565b9050919050565b7f4f776e65722063616e206e6f7420496e69746961746520526566756e64000000600082015250565b6000610b42601d836108fb565b9150610b4d82610b0c565b602082019050919050565b60006020820190508181036000830152610b7181610b35565b9050919050565b7f4e6f2050656e64696e672052657475726e730000000000000000000000000000600082015250565b6000610bae6012836108fb565b9150610bb982610b78565b602082019050919050565b60006020820190508181036000830152610bdd81610ba1565b9050919050565b7f4e6f7420656e6f7567682046756e647320496e20436f6e747261637400000000600082015250565b6000610c1a601c836108fb565b9150610c2582610be4565b602082019050919050565b60006020820190508181036000830152610c4981610c0d565b905091905056fea2646970667358221220fdb2b1b7c58d0ceae031d8c52d0321913f71dbc60080efa8e730cecc57de5f6464736f6c634300080b0033",
  "immutableReferences": {},
  "source": "// SPDX-License-Identifier: MIT\r\npragma solidity >=0.4.22 <0.9.0;\r\n\r\ncontract Auction{\r\n    address Auction_Owner;\r\n    mapping(address=>uint) bidders;\r\n    mapping(address=>uint) Pending_returns;\r\n\r\n    uint highest_bid;\r\n    address highest_Bidder;\r\n\r\n    uint prev_higest_bid;\r\n    address prev_higest_bidder;\r\n\r\n    uint Creation_time;\r\n\r\n    constructor(){\r\n        Auction_Owner = msg.sender; \r\n        highest_bid = 0;\r\n        prev_higest_bid = 0;\r\n        Creation_time = block.timestamp;\r\n    }\r\n\r\n    event BidPlace(\r\n        address CurrentBidder,\r\n        uint Current_BidAmount,\r\n        uint Previous_BidAmount\r\n    );\r\n\r\n    event RecievedEth(\r\n        address SentFrom,\r\n        uint EthAmount\r\n    );\r\n\r\n    modifier isAuctionEnded(){\r\n        require(block.timestamp > Creation_time + 2 days, 'Auction Not Ended'\r\n        );\r\n        _;\r\n    }\r\n\r\n    modifier isOwner(){\r\n        require(msg.sender == Auction_Owner , 'You are not the Owner');\r\n        _;\r\n    }\r\n    receive() external payable{\r\n        //payable(Auction_Owner).transfer(msg.value);\r\n        emit RecievedEth(msg.sender, msg.value);\r\n    }\r\n    function Bid(uint amount) payable public {\r\n\r\n        //require(block.timestamp < Creation_time + 2 days,'Auction Time Ended');\r\n        if(amount > highest_bid){\r\n            \r\n            prev_higest_bid = highest_bid;\r\n            prev_higest_bidder = highest_Bidder;\r\n\r\n            highest_bid = amount;\r\n            highest_Bidder = msg.sender;\r\n\r\n            bidders[msg.sender] = amount;\r\n            Pending_returns[prev_higest_bidder] += prev_higest_bid;\r\n     \r\n            emit BidPlace(highest_Bidder, highest_bid, prev_higest_bid);\r\n        }\r\n        else{\r\n            revert('Amount too Low');\r\n        }\r\n    }\r\n\r\n    /* \r\n        after auction ended bidders who did not placed the highest bid can call for refund  \r\n    */\r\n\r\n    /* Add Modifier isAuctionEnded() , removing it now for only test purposes */\r\n    function GetRefund() public payable{ \r\n        uint amount =  Pending_returns[msg.sender];\r\n        uint contract_balance = address(this).balance;\r\n\r\n        require(msg.sender != Auction_Owner , 'Owner can not Initiate Refund');\r\n        require(amount > 0 , 'No Pending Returns');\r\n        require(amount <= contract_balance , 'Not enough Funds In Contract');\r\n        //require(msg.sender != highest_Bidder , 'Auction Winner Can not Claim Refund');\r\n\r\n            Pending_returns[msg.sender] = 0;\r\n            payable(msg.sender).transfer(amount);\r\n    }\r\n\r\n    /* Send the highest Bid to the Auction Owner*/\r\n    function TransferEthToOwner() public payable isOwner() {\r\n        uint256 contract_balance = address(this).balance ;\r\n        require(highest_bid <= contract_balance , 'Insufficient Amount in Contract');\r\n        payable(Auction_Owner).transfer(highest_bid);\r\n    }\r\n    \r\n    function ShowCurrentBid() external view  returns(address,uint){\r\n        return (highest_Bidder,highest_bid);\r\n    }\r\n\r\n    function GetOwner() external view returns(address){\r\n        return Auction_Owner;\r\n    }\r\n\r\n    function getCurrentHighestBid() external view returns(address,uint){\r\n        return (highest_Bidder,highest_bid);\r\n    }\r\n\r\n    function getPrevHighestBid() external view returns(address,uint){\r\n        return (prev_higest_bidder,prev_higest_bid);\r\n    }\r\n    function getContractBalance() external view returns(uint){\r\n        return address(this).balance;\r\n    }\r\n\r\n}",
  "sourcePath": "D:\\BlockChain Projects\\Auction Dapp 2\\auction-dapp\\src\\contracts\\Auction.sol",
  "compiler": {
    "name": "solc",
    "version": "0.8.11+commit.d7f03943.Emscripten.clang"
  },
  "schemaVersion": "3.4.4",
  "updatedAt": "2023-01-30T12:37:12.862Z",
  "networkType": "ethereum",
  "devdoc": {
    "kind": "dev",
    "methods": {},
    "version": 1
  },
  "userdoc": {
    "kind": "user",
    "methods": {},
    "version": 1
  }
}